1720202412345678AAPELLIDO NUÑEZ, MARIA CARMEN            T667000111APELLIDO NUÑEZ, MARIA CARMEN            7200000000000  0            000000009 00000000058012091 00000000004403536                                                                                                                                                                                                                                                                                                                                
2720202412345678A12345678A         APELLIDO NUÑEZ, MARIA CARMEN            1                         C1                         US0            O           40012345678                       CITIBANK CHECKING                                                                                                                                                                                                              US20000601M00000000 00000001234578 00000001567891 000000000000 05000                    
2720202412345678A12345678A         APELLIDO NUÑEZ, MARIA CARMEN            1                         V1                         IE1IE00BSKRJZ44                                              ISHARES USD TRES 20PLUS YR                                                                                                                                                                                                     IE00000000A00000000 00000004512326 00000000000000A000000400000 05000                    
2720202412345678A12345678A         APELLIDO NUÑEZ, MARIA CARMEN            1                         V1                         US1US64110L1061                                              NETFLIX INC COM NFLX                                                                                                                                                                                                           US00000000M00000000 00000011032123 00000000000000A000000010000 05000                    
2720202412345678A12345678A         APELLIDO NUÑEZ, MARIA CARMEN            1                         V1                         US1US78462F1030                                              SPDR S&P 500 ETF TRUST SPY                                                                                                                                                                                                     US00000000M00000000 00000006811122 00000000000000A000000010000 05000                    
2720202412345678A12345678A         APELLIDO NUÑEZ, MARIA CARMEN            1                         V1                         US1US4642886539                                              ISHARES 10-20 YEAR TREASURY                                                                                                                                                                                                    US00000000A00000000 00000005022245 00000000000000A000000050000 05000                    
2720202412345678A12345678A         APELLIDO NUÑEZ, MARIA CARMEN            1                         V1                         US1US60770K1079                                              MODERNA INC                                                                                                                                                                                                                    US00000000A00000000 00000002001155 00000000000000A000000050000 05000                    
2720202412345678A12345678A         APELLIDO NUÑEZ, MARIA CARMEN            1                         C5                         IE0            O           U12345678                         INTERACTIVE BROKERS SALDO EUR                                                                                                                                                                                                  IE20240606A00000000 00000006030271 00000000870289 000000000000 05000                    
2720202412345678A12345678A         APELLIDO NUÑEZ, MARIA CARMEN            1                         C5                         IE0            O           U12345678                         INTERACTIVE BROKERS SALDO USD                                                                                                                                                                                                  IE20240606A00000000 00000002701652 00000001965356 000000000000 05000                    
2720202412345678A12345678A         APELLIDO NUÑEZ, MARIA CARMEN            1                         V1                         US1US0231351067                                              AMAZON INC                                                                                                                                                                                                                     US00000000M00000000 00000018666619 00000000000000A000000065000 05000                    
